{
  "transactions": [
    {
      "hash": "0xfa673cc08921353c8c71158f875890c9ac0f7e3b9392ff5d72c3927a9af92864",
      "transactionType": "CALL",
      "contractName": "BasicNft",
      "contractAddress": "0x1be1B4Cc855751C3e5eea9dAa5a565fB9b6010E8",
      "function": "mintNft(string)",
      "arguments": [
        "\"ipfs://bafybeig37ioir76s7mg5oobetncojcm3c3hxasyd4rvid4jqhy4gkaheg4/?filename=0-PUG.json\""
      ],
      "transaction": {
        "type": "0x02",
        "from": "0x38544e39a21ddbe0e1995475f991d56d01d5ce6b",
        "to": "0x1be1b4cc855751c3e5eea9daa5a565fb9b6010e8",
        "gas": "0x40ff0",
        "value": "0x0",
        "data": "0xda86f4a900000000000000000000000000000000000000000000000000000000000000200000000000000000000000000000000000000000000000000000000000000057697066733a2f2f62616679626569673337696f6972373673376d67356f6f6265746e636f6a636d3363336878617379643472766964346a71687934676b61686567342f3f66696c656e616d653d302d5055472e6a736f6e000000000000000000",
        "nonce": "0xc",
        "accessList": []
      },
      "additionalContracts": [],
      "isFixedGasLimit": false
    }
  ],
  "receipts": [
    {
      "transactionHash": "0xfa673cc08921353c8c71158f875890c9ac0f7e3b9392ff5d72c3927a9af92864",
      "transactionIndex": "0x4",
      "blockHash": "0x5c18b2e59113a0a843e251848f30bd16ae0961b31b2e9be5b2dbbef6aa9daf14",
      "blockNumber": "0x6c624b",
      "from": "0x38544E39a21ddbE0E1995475F991D56D01d5CE6B",
      "to": "0x1be1B4Cc855751C3e5eea9dAa5a565fB9b6010E8",
      "cumulativeGasUsed": "0x81dfe",
      "gasUsed": "0x2c712",
      "contractAddress": null,
      "logs": [
        {
          "address": "0x1be1B4Cc855751C3e5eea9dAa5a565fB9b6010E8",
          "topics": [
            "0xddf252ad1be2c89b69c2b068fc378daa952ba7f163c4a11628f55a4df523b3ef",
            "0x0000000000000000000000000000000000000000000000000000000000000000",
            "0x00000000000000000000000038544e39a21ddbe0e1995475f991d56d01d5ce6b",
            "0x0000000000000000000000000000000000000000000000000000000000000000"
          ],
          "data": "0x",
          "blockHash": "0x5c18b2e59113a0a843e251848f30bd16ae0961b31b2e9be5b2dbbef6aa9daf14",
          "blockNumber": "0x6c624b",
          "transactionHash": "0xfa673cc08921353c8c71158f875890c9ac0f7e3b9392ff5d72c3927a9af92864",
          "transactionIndex": "0x4",
          "logIndex": "0x5",
          "removed": false
        }
      ],
      "status": "0x1",
      "logsBloom": "0x00000000000000000000000000000000000000000000000000000000020000000000000000200000000000000000000000000000000000000000000000000000000000000000000000000008000000000000000000000000000000000000000000000000020000000000000000000800000000000000000000000010000000000000000000000000000000000000000000000000000000000000000000000000000000000000000000000000000000000000000000000000000000000000000000000002000000001000000000000000100000000000000000000000008020000000000000000000000000000000000000000000000000000000000100000000",
      "type": "0x2",
      "effectiveGasPrice": "0x14bc20bc0"
    }
  ],
  "libraries": [],
  "pending": [],
  "returns": {},
  "timestamp": 1731942579,
  "chain": 11155111,
  "commit": "47f0e35"
}